:100000000C943A010C9459010C9459010C94590127
:100010000C9459010C9459010C9459010C945901F8
:100020000C9459010C9459010C9459010C945901E8
:100030000C9459010C9459010C9459010C945901D8
:100040000C9459010C9459010C9459010C945901C8
:100050000C9459010C9459010C9459010C945901B8
:100060000C9459010C9459010C9459010C945901A8
:100070000C9459010C9459010C9459010C94590198
:100080000C9459010C9459010C9459010C94590188
:100090000C9459010C945901000000000000005F0D
:1000A00000000003000300143E143E14242A7F2A9B
:1000B000124333086661364955225000050300009B
:1000C000001C2241000041221C0014083E081408B4
:1000D000083E0808005030000008080808080060C2
:1000E00060000020100804023E5149453E00040211
:1000F0007F00426151494622414949361814127F16
:100100001027454545393E494949320101710907E2
:100110003649494936264949493E003636000000ED
:10012000563600000814224100141414141400411F
:1001300022140802015109063E4159555E7E090903
:10014000097E7F494949363E414141227F41414133
:100150003E7F494949417F090909013E4141493AE8
:100160007F0808087F00417F4100304040403F7FCA
:10017000081422417F404040407F020C027F7F02F2
:1001800004087F3E4141413E7F090909061E2121A5
:10019000215E7F09090976264949493201017F011B
:1001A000013F4040403F1F2040201F7F2010207F04
:1001B00041221C224107087008076151494543004C
:1001C0007F41000002040810200000417F0004026B
:1001D0000102044040404040000102040020545409
:1001E00054787F4444443838444444443844444474
:1001F0007F385454541804047E0505085454543C64
:100200007F0804047800447D40002040443D007F86
:100210001028440000417F40007C047804787C086A
:1002200004047838444444387C1414140808141422
:10023000147C007C080404485454542004043F44B3
:10024000443C4040207C1C2040201C3C4030403C32
:1002500044281028440C5050503C4464544C4400F2
:100260000836414100007F0000414136080002018C
:100270000204020011241FBECFEFD0E2DEBFCDBFCB
:1002800011E0A0E0B1E0E6EAFEE000E00BBF02C052
:1002900007900D92A632B107D9F721E0A6E2B1E0AE
:1002A00001C01D92AA33B207E1F70E94F7040C9433
:1002B00051070C940000E1E6F0E080E880831082B2
:1002C0000C944D0393E89093B00091E09093B100AB
:1002D0008093B300089590932B0180932A0126E325
:1002E00030E020930040009779F480EF90E0909305
:1002F00027018093260180E491E090932901809367
:10030000280188E490E034C08130910579F480E4DC
:1003100091E0909327018093260180EF90E09093E5
:1003200029018093280188EE90E022C08230910557
:1003300079F480EF90E0909327018093260180E488
:1003400091E0909329018093280188E890E010C003
:10035000039781F480E491E0909327018093260134
:1003600080EF90E0909329018093280188E290E04B
:10037000809300418AE290E08093004020E030E0EA
:1003800030930041209300418091260190912701F4
:10039000019790930041809300418BE290E080931D
:1003A00000403093004120930041809128019091BA
:1003B0002901019790930041809300410895CF93C4
:1003C000873748F4883048F08D3350F48F3150F43B
:1003D000803150F403C086E703C088E0C3E005C065
:1003E000C0E003C0C1E001C0C2E021EB30E02093D7
:1003F0000040C0930041682F70E080E090E00E94D0
:10040000A4059B01AC0160E070E080EF94E40E94E1
:1004100001050E94730570E002C075956795CA9545
:10042000E2F760930041CF9108950F931F93CF930C
:10043000DF93CDB7DEB728970FB6F894DEBF0FBEB7
:10044000CDBF29833A834B835C836D837E838F8307
:10045000988769817A812B813C814D815E818F8172
:100460009885EAE2F0E0E0930040709300416093E9
:1004700000413093004120930041EBE2F0E0E09333
:10048000004050930041409300419093004180937D
:100490000041ECE2F0E0E09300402F5F3F4F261B6D
:1004A000370B0196841B950B2817390790F4482FBA
:1004B0004770429FB001439F700D112453E0969501
:1004C00087955A95E1F7829FA001839F500D1124D3
:1004D00011C0422F4770489FB001499F700D1124F1
:1004E00043E0369527954A95E1F7289FA001299F7B
:1004F000500D1124862F8770815028F010930041F1
:1005000000930041F9CFCB0123E0969587952A957A
:10051000E1F7840F951F019708F1109300410093B4
:10052000004110930041009300411093004100935B
:10053000004110930041009300411093004100934B
:10054000004110930041009300411093004100933B
:1005500000411093004100930041DDCF28960FB673
:10056000F894DEBF0FBECDBFDF91CF911F910F91E9
:100570000895EF92FF920F931F93CF93DF93CDB720
:10058000DEB728970FB6F894DEBF0FBECDBF298324
:100590003A834B835C836D837E838F8398878981C5
:1005A0009A81EB80FC806D817E81AF81B8852AE2E3
:1005B00030E0209300409093004180930041F092FE
:1005C0000041E09200412BE230E020930040709324
:1005D000004160930041B0930041A09300412CE2A0
:1005E00030E020930040E816F906A0F0A8019B0136
:1005F0008A01A217B30760F04E5F5F4FF8010081D8
:10060000118110930041009300412F5F3F4FF0CFC5
:100610000196E9CF28960FB6F894DEBF0FBECDBF86
:10062000DF91CF911F910F91FF90EF9008950F935D
:100630001F93CF93DF93CDB7DEB728970FB6F8940B
:10064000DEBF0FBECDBFE6E2F1E017821682118653
:1006500010861A821982808191810197482F9C838C
:100660008B831E821D8282819381019798878F835D
:100670000485158520E03A815C8160E07E81988563
:100680000E94150228960FB6F894DEBF0FBECDBFAC
:10069000DF91CF911F910F91089586E080937500AF
:1006A00080E8809374003F9A249A8FEC97E001973A
:1006B000F1F700C0000047988FE39CE90197F1F73C
:1006C00000C00000479A9FEF2DEE82E0915020403D
:1006D0008040E1F700C0000088E290E08093004095
:1006E00081E190E0809300409FEF26E781E0915008
:1006F00020408040E1F700C0000021E030E08BECBA
:1007000090E0809300402093004180EC90E0809343
:10071000004088E096E2909300418093004120E100
:1007200030E081EC90E0809300402093004185EC24
:1007300090E0809300408EE395E390930041809396
:10074000004125EB30E087EC90E08093004020935F
:10075000004121E030E086EF90E08093004020935C
:10076000004180E090E0909300418093004125E5B6
:1007700030E08AE390E0809300402093004181E0E4
:1007800090E00E946B010E941703E6E2F1E01782FD
:10079000168211861086158614868FEF9FEF938739
:1007A000828788E498E00E94300690933501809318
:1007B000340189E290E0809300409FE728E381E0E4
:1007C000915020408040E1F700C0000020E030E080
:1007D00085E390E08093004020930041EAE6F0E05A
:1007E0008081806280832C9A08959F92AF92BF92FD
:1007F000CF92DF92EF92FF920F931F93CF93DF93ED
:10080000C0912E01D0912F018A3051F42C96D093B3
:100810002F01C0932E0110922D0110922C01ADC01A
:1008200090EE980F9F3508F0A8C0182FE0902C018B
:10083000F0902D01C13FD10510F00E941703809167
:100840002C0190912D018134914048F080912E012E
:1008500090912F01069690932F0180932E019E0177
:10086000295F3F4F812F110F990B809745E0489FDB
:10087000B001499F700D11248BE290E080930040FD
:10088000D0930041C0930041309300412093004138
:10089000C701A7014C5F5F4FAAE2B0E00CE210E095
:1008A0004817590780F1A09300409093004180932E
:1008B0000041909300418093004100930040FC016F
:1008C000EE19FF09E60FF71FE856FF4F94906E01EF
:1008D000F1E02C153D05A8F0BF2EB92029F0A0901D
:1008E0003001B090310104C0A0903201B0903301CA
:1008F000B0920041A0920041EFEFCE1ADE0AFF0F46
:10090000E8CF0196CDCF4AE250E04093004090936B
:1009100000418093004190930041809300418CE21C
:1009200090E0809300402C173D0750F080913201F9
:100930009091330190930041809300412196F3CF31
:1009400080912C0190912D01069690932D0180931A
:100950002C0120912601309127018217930768F01E
:1009600010922D0110922C0180912E0190912F0157
:10097000089690932F0180932E01DF91CF911F91C4
:100980000F91FF90EF90DF90CF90BF90AF909F902E
:1009900008950F931F93CF938C01C0E0F801EC0FE3
:1009A000F11D8081882321F00E94F503CF5FF6CFEF
:1009B000CF911F910F9108950F931F93CF938C01A7
:1009C00070932D0160932C0150932F0140932E01C1
:1009D000C0E0F801EC0FF11D8081882321F00E9416
:1009E000F503CF5FF6CFCF911F910F9108950E942D
:1009F0005B0186E091E00E94C9048AE191E00C94D9
:100A0000C9040E9415050C94F6050E94EF0558F0E4
:100A10000E94E80540F029F45F3F29F00C94DF05BF
:100A200051110C942A060C94E5050E94070668F300
:100A30009923B1F3552391F3951B550BBB27AA2797
:100A400062177307840738F09F5F5F4F220F331FD1
:100A5000441FAA1FA9F335D00E2E3AF0E0E832D099
:100A600091505040E695001CCAF72BD0FE2F29D09C
:100A7000660F771F881FBB1F261737074807AB076E
:100A8000B0E809F0BB0B802DBF01FF2793585F4FE3
:100A90003AF09E3F510578F00C94DF050C942A063D
:100AA0005F3FE4F3983ED4F3869577956795B795C5
:100AB000F7959F5FC9F7880F911D9695879597F9D0
:100AC0000895E1E0660F771F881FBB1F6217730749
:100AD0008407BA0720F0621B730B840BBA0BEE1F5E
:100AE00088F7E09508950E940F0688F09F5798F0C8
:100AF000B92F9927B751B0F0E1F0660F771F881F23
:100B0000991F1AF0BA95C9F714C0B13091F00E943C
:100B10002906B1E008950C942906672F782F8827BD
:100B2000B85F39F0B93FCCF3869577956795B39563
:100B3000D9F73EF490958095709561957F4F8F4FD2
:100B40009F4F0895E89409C097FB3EF490958095D7
:100B5000709561957F4F8F4F9F4F9923A9F0F92F83
:100B600096E9BB279395F695879577956795B79501
:100B7000F111F8CFFAF4BB0F11F460FF1BC06F5FE7
:100B80007F4F8F4F9F4F16C0882311F096E911C0F9
:100B9000772321F09EE8872F762F05C0662371F01A
:100BA00096E8862F70E060E02AF09A95660F771F2E
:100BB000881FDAF7880F9695879597F9089597F922
:100BC0009F6780E870E060E008959FEF80EC0895F3
:100BD00000240A941616170618060906089500241C
:100BE0000A9412161306140605060895092E039496
:100BF000000C11F4882352F0BB0F40F4BF2B11F40A
:100C000060FF04C06F5F7F4F8F4F9F4F089557FD68
:100C10009058440F551F59F05F3F71F04795880F6A
:100C200097FB991F61F09F3F79F087950895121601
:100C300013061406551FF2CF4695F1DF08C01616AD
:100C400017061806991FF1CF86957105610508945E
:100C50000895E894BB2766277727CB0197F9089575
:100C60000F931F93CF93DF938230910510F482E0AE
:100C700090E0E0913801F091390120E030E0A0E00F
:100C8000B0E0309719F140815181028113814817FA
:100C90005907C8F08417950769F4109731F0129638
:100CA0000C93129713961C9327C00093380110934E
:100CB000390122C02115310519F04217530718F4E4
:100CC0009A01BD01EF01DF01F801DBCF21153105EC
:100CD000F9F0281B390B2430310580F48A819B817F
:100CE0006115710521F0FB019383828304C0909309
:100CF000390180933801FE01329644C0FE01E20FB3
:100D0000F31F8193919322503109398328833AC08C
:100D10002091360130913701232B41F420910201BB
:100D20003091030130933701209336012091000167
:100D3000309101012115310541F42DB73EB74091A5
:100D4000040150910501241B350BE0913601F0910F
:100D50003701E217F307A0F42E1B3F0B28173907C2
:100D600078F0AC014E5F5F4F2417350748F04E0F07
:100D70005F1F50933701409336018193919302C0D6
:100D8000E0E0F0E0CF01DF91CF911F910F91089546
:100D9000CF93DF93009709F481C0FC01329713824F
:100DA0001282A0913801B0913901109781F420810D
:100DB0003181820F931F209136013091370128171E
:100DC000390751F5F0933701E093360167C0ED0123
:100DD00020E030E0CE17DF0740F44A815B819E01BE
:100DE00041155105F1F0EA01F5CFD383C28340816B
:100DF0005181840F951FC817D90759F488819981AB
:100E0000840F951F0296918380838A819B819383AF
:100E100082832115310529F4F0933901E0933801DB
:100E20003DC0E901FB83EA8349915991C40FD51F65
:100E3000EC17FD0761F480819181840F951F029664
:100E4000E90199838883828193819B838A83E0E08F
:100E5000F0E012968D919C911397009719F0FD0187
:100E6000DC01F7CF8D919C9111979D012E5F3F4F33
:100E7000820F931F209136013091370128173907CF
:100E800069F4309729F4109239011092380102C0A8
:100E900013821282B0933701A0933601DF91CF9174
:060EA0000895F894FFCF55
:100EA60000003A01200048656C6C6F20536F757422
:100EB60068616D70746F6E210A0048656C6C6F20F6
:060EC600554B210A00005B
:00000001FF
